:100000006F204133130000001300000013000000B4
:100010001300000013000000130000001300000094
:100020001300000013000000130000001300000084
:08003000130000007300100032
:1000380000000000000000004612000056120000F8
:10004800000000007A22010000000000000000000B
:100058007C2201007E220100000000000000000058
:100068008022010000000000822201000000000040
:100078008422010086220100882201008A220100D0
:100088008C2201008E2201009022010092220100A0
:100098009422010096220100982201009A22010070
:1000A8009C2201009E220100A0220100A222010040
:1000B800A4220100A6220100A8220100AA22010010
:1000C800AC220100AE220100B0220100A012000003
:1000D800B4220100B6220100B8220100BA220100B0
:1000E8000C1300007C100000C0220100C222010095
:1000F800C4220100C6220100C8220100CA22010050
:10010800CC220100CE220100D0220100D22201001F
:10011800D4220100D6220100D8220100DA220100EF
:10012800DC220100DE220100E0220100E2220100BF
:10013800E4220100E6220100E8220100EA2201008F
:10014800EC220100EE220100F0220100F22201005F
:10015800F4220100F6220100F8220100FA2201002F
:10016800FC220100F8120000002301000223010014
:100178000423010006230100082301000A230100CB
:100188000C2301000E23010010230100122301009B
:100198001423010016230100182301001A2301006B
:1001A8001C2301001E23010020230100222301003B
:1001B8002423010026230100282301002A2301000B
:1001C8002C2301002E2301003023010032230100DB
:1001D8000000000000000000000000000000000017
:1001E8000000000000000000000000000000000007
:0801F8000000000000000000FF
:10020000411106C622C400081385419445280111F6
:1002100006CE22CC00102326A4FE2324B4FE0327FE
:10022000C4FE8547631AF706032784FEC167FD17DE
:100230006314F70623A20194138741942322070035
:100240001387419423240700138741942326070032
:10025000138741942328070013874194232A07001A
:1002600013874194232C070013874194232E070002
:100270001387419423200702138741942322070206
:1002800013874194232407029387419423A60702EE
:1002900013854194EF1091770100F24062440561AB
:1002A0008280411106C622C40008C1679385F7FF0A
:1002B0000545B13FB240224441018280011106CE82
:1002C00022CC00102326A4FE8327C4FE3E85EF0027
:1002D000905DB797020013854714EFA0913F8327E5
:1002E000C4FE3E85EF0010608327C4FEA1073E8553
:1002F000EF0010098327C4FEA1073E85EF00300AF6
:100300008327C4FEE1073E8515208327C4FEE1074D
:100310003E85C1288327C4FEE1073E85A92A83279D
:10032000C4FEA1073E85EF00F013EDB7797106D644
:1003300022D40018232EA4FC8327C4FD91073E85F8
:10034000EF10C055EF20F13DAA87A917B337F00091
:1003500093F7F70F99C7B797020013854715EFA0DA
:1003600051378327C4FD1387A7008327C4FD9385D6
:10037000E7008327C4FD138627018327C4FD910767
:10038000BE863A85EF204016AA87A307F4FE83476E
:10039000F4FE99E7B797020013854716EFA0713373
:1003A0009567938707E22320F4FE9167938787A9D7
:1003B0002322F4FEA5472324F4FE930704FE3E8582
:1003C000EF20B12209469305F00F13850187EF1046
:1003D00071400325C4FD09220100B2502254456139
:1003E0008280797106D622D40018232EA4FCEF2037
:1003F0005133AA87BE85B79702001385C717EFA0B0
:10040000111EB797020013850719EFA0511D83270E
:10041000C4FD91072324F4FE832784FE2326F4FEE3
:10042000832784FE99072322F4FE0327C4FE832733
:1004300044FE6307F7028327C4FE83C70700A301B6
:10044000F4FE834734FEBE85B79702001385C719B3
:10045000EFA0F1188327C4FE85072326F4FEF1B729
:10046000B79702001385071AEFA0B1260100B2501A
:10047000225445618280011106CE22CC0010232631
:10048000A4FEEF10A07FEF30813DAA87B337F000C4
:1004900093F7F70F81C70325C4FE8D260100F240B4
:1004A000624405618280011106CE22CC0010AA8729
:1004B000A307F4FE8347F4FE99CB8347F4FEBE8581
:1004C000B79702001385471AEFA0711111A0010020
:1004D000F2406244056182801D7186CEA2CC8010FC
:1004E0002326A4FA930704FB1306C00381453E8527
:1004F000EF10512E83D7C180232CF4FC8D47232687
:10050000F4FC930704FBBE851385E186EF20912759
:10051000AA87A307F4FE83C7E186BE85B7970200CA
:100520001385471BEFA0B10B8347F4FE3E85A53F23
:1005300083C7E1863E85EF30E146AA87A307F4FE34
:100540008347F4FE3E8585370100F6406644256109
:100550008280797106D622D40018232EA4FCAE879F
:10056000A30DF4FC0347B4FDB7870020938687678B
:10057000BA879207998F8A07B69794470347B4FDC5
:10058000B787002013868767BA879207998F8A07F3
:10059000B297DC47B6972326F4FE0347B4FDB7872E
:1005A000002093868767BA879207998F8A07B69744
:1005B000D44B0347B4FDB787002013868767BA87FB
:1005C0009207998F8A07B2979C4FB6970327C4FE6C
:1005D0006375F7020347B4FDB787002093868767EA
:1005E000BA879207998F8A07B697DC4B0327C4FE18
:1005F000B307F7402322F4FE39A80347B4FDB787B9
:10060000002093868767BA879207998F8A07B697E3
:100610009C4F2322F4FE0347B4FDB7870020938646
:100620008767BA879207998F8A07B697DC4BBE8691
:10063000130744FE8347B4FD3A86B6853E85EF3006
:10064000210DAA87A305F4FE8347B4FE91EB13079F
:1006500044FE8347B4FD3A8681453E85EF207138DC
:100660000100B250225445618280797106D622D4AD
:100670000018232EA4FCAE873287A30DF4FCBA87A2
:10068000230DF4FC8347A4FD918B99C78347B4FDE8
:10069000BE850325C4FD753D8347A4FDA18BDDC345
:1006A0008347B4FD85453E85EF30C1230347B4FD44
:1006B0008567938787B63307F702B71700209387BC
:1006C00047B6BA97BE860347B4FD8567138687B6DB
:1006D000B6853A85EF20D12BA30704FE0347F4FE2D
:1006E000854763EDE7020347F4FE93870187BA97D6
:1006F00003C707009307F00F631CF7000347F4FEDE
:1007000093870187BA970347B4FD2380E70039A098
:100710008347F4FE8507A307F4FEC9B7B797020025
:100720001385C71CEFA0E17A0347F4FE9387018786
:10073000BA9783C70700BE85B79702001385471E87
:10074000EFA0E1698347A4FDC18BA1CBA30704FE01
:100750000347F4FE854763ECE7020347F4FE938703
:100760000187BA9783C707000347B4FD631BF700EF
:100770000347F4FE93870187BA977D572380E700EC
:1007800039A08347F4FE8507A307F4FED1B7B797D6
:1007900002001385471FEFA0C1738347A4FD93F7A1
:1007A0000704A1CBA30704FE0347F4FE854763ECCF
:1007B000E7020347F4FE93870187BA9783C70700D0
:1007C0000347B4FD631BF7000347F4FE93870187DB
:1007D000BA977D572380E70039A08347F4FE850749
:1007E000A307F4FED1B7B797020013854720EFA007
:1007F000416E0100B250225445618280797106D663
:1008000022D40018232EA4FCEF304109AA87A306A6
:10081000F4FE8347D4FE858B99C7B79702001385F2
:100820004721EFA0016B8347D4FE898B99C7B79707
:10083000020013858722EFA0C1698347D4FE918B04
:1008400085C3EF308109AA872317F4FE8357E4FE9E
:10085000918B99C7B797020013850724EFA06167B2
:100860008347D4FEC18BB1C7231704FE0357E4FEB0
:10087000854763E0E7048357E4FE93F7F70F3E856F
:10088000EF300103AA872306F4FE8347C4FE81CF1D
:100890008357E4FE93F7F70F0347C4FE3A86BE85FD
:1008A0000325C4FDD9338357E4FE85072317F4FEDF
:1008B00075BF0100B250225445618280797106D61D
:1008C00022D40018232EA4FCAE87232AC4FCA30D37
:1008D000F4FC230204FEA30204FE230304FEA3038C
:1008E00004FE8347B4FD63950720832744FD232638
:1008F000F4FEB797020013854725EFA0815D83279B
:10090000C4FDA90711468325C4FE3E85EFA0A1368C
:10091000AA8799E3854709AC8327C4FDA907130774
:1009200044FE1146BA853E85EFA0E134AA8799C7F7
:1009300083C7E18681453E85EF30C11F8327C4FD13
:10094000A90711468325C4FE3E85EFA00139832700
:10095000C4FD1387E7008327C4FE91071146BE85B7
:100960003A85EFA081378327C4FD138727018327AA
:10097000C4FEA1071146BE853A85EFA00136832744
:10098000C4FD83C7A700BE858327C4FD83C7B70006
:100990003E868327C4FD83C7C700BE868327C4FD68
:1009A00083C7D7003E87B797020013854726EFA07D
:1009B00001438327C4FD83C7E700BE858327C4FDA9
:1009C00083C7F7003E868327C4FD83C70701BE8621
:1009D0008327C4FD83C717013E87B797020013859D
:1009E000C727EFA0C13F8327C4FD83C72701BE856A
:1009F0008327C4FD83C737013E868327C4FD83C791
:100A00004701BE868327C4FD83C757013E87B7973A
:100A1000020013854726EFA0813C8327C4FEB1075F
:100A200083C70700BE858327C4FEB50783C70700B9
:100A30003E868327C4FEB90783C70700BE86832787
:100A4000C4FEBD0783C707003E87B7970200138522
:100A50008729EFA0C1388327C4FEC10783C70700D9
:100A6000BE858327C4FEC50783C707003E8683274C
:100A7000C4FEC90783C70700BE868327C4FECD070F
:100A800083C707003E87B79702001385072BEFA0A7
:100A900001358327C4FD1387A7008327C4FD9385F1
:100AA000E7008327C4FD138627018327C4FD910730
:100AB000BE863A85EF105023AA87A305F4FE83472C
:100AC000B4FE3E85CD328347B4FE99E7B797020066
:100AD0001385872CEFA0E13F09469305F00F13859E
:100AE0000187EF10214F0325C4FDFD3285472DA856
:100AF0008347B4FDBE85B79702001385072EEFA08C
:100B0000012E8327C4FDA907130744FE1146BA85A9
:100B10003E85EFA04116AA8799C783C7E186814524
:100B20003E85EF30210181473E85B2502254456118
:100B30008280011122CE00102326A4FE2324B4FEBD
:100B40008327C4FE032784FE98C38327C4FE23A201
:100B500007008327C4FE238407008327C4FE1147B0
:100B6000A384E7008327C4FE15472385E700832776
:100B7000C4FE11472396E70001007244056182809C
:100B8000011106CE22CC00102326A4FE81450325A8
:100B9000C4FEA12E0100F240624405618280797199
:100BA00006D622D40018232EA4FCB7970200138582
:100BB000472FEFA00132B777DC02938707C02326C7
:100BC000F4FE8327C4FD83D7C700BE868327C4FDF8
:100BD00083C7A70085070327C4FD03479700BA977B
:100BE0008907B387F6020327C4FEB347F70223241D
:100BF000F4FE8327C4FD83C78700BE85B797020034
:100C000013850730EFA0A11D8327C4FD83C797007C
:100C1000BE85B79702001385C730EFA0411C83271C
:100C2000C4FD83C7A700BE85B7970200138587312F
:100C3000EFA0E11A8327C4FD83D7C700BE85B7970D
:100C4000020013854732EFA08119832584FEB797F0
:100C5000020013850733EFA081180100B25022541F
:100C600045618280397106DE22DC80002326A4FCE7
:100C700085472307F4FE930770312324F4FEA30372
:100C800004FE8327C4FC9C433E85EF10615D232056
:100C9000A4FE8327C4FCDC43032704FE63F3E70CB4
:100CA000832704FE138747068327C4FCD8C3A30702
:100CB00004FE0347F4FE9D4763E6E7028347F4FE24
:100CC0008346E4FE0347F4FE36971377F70F930647
:100CD00004FFB6972382E7FE8347F4FE8507A30748
:100CE000F4FEC1BF034774FE930744FD832684FED0
:100CF0002146BE850325C4FC9528AA87A30FF4FCD2
:100D00008347F4FD81CBB79702001385C733EFA06B
:100D1000411C81A8B79702001385C734EFA0210CAE
:100D2000A30704FE0347F4FE9D4763E6E7028347FB
:100D3000F4FE130704FFBA9783C747FEBE85B79733
:100D4000020013858735EFA081098347F4FE8507EC
:100D5000A307F4FEC1BFB797020013850736EFA0C3
:100D600041170100F250625421618280397106DE20
:100D700022DC80002326A4FC2324B4FCB287232099
:100D8000D4FCA303F4FCBA872303F4FC231704FE6A
:100D9000834764FC99C3914711A081472300F4FE67
:100DA000832704FC232CF4FCA30004FE834774FC7B
:100DB0002301F4FE231704FE834774FCC207C1839A
:100DC0000357E4FE6376F7028357E4FE032784FCAF
:100DD0003E978357E4FE03470700930604FFB69748
:100DE000A389E7FE8357E4FE85072317F4FEE9B7DE
:100DF000930784FDBE85B767004013850740EF3039
:100E0000801BAA87A306F4FE231704FE8347D4FEA3
:100E1000BE85B767004013850740EF30403CAA8786
:100E20003E878547630AF7000357E4FE8567F91795
:100E300063E4E700854711A0814799C78357E4FE23
:100E400085072317F4FED9B70357E4FE8567FD171E
:100E50006314F700854711A081473E85F250625424
:100E600021618280397106DE22DC80002326A4FC09
:100E70002324B4FC8145B767004013850740EF3059
:100E80000072AA8793B7170093F7F70F99C38147AA
:100E900081A8930784FD3E868145B767004013858E
:100EA0000740EF30E04BA30704FE0347F4FE9D47E5
:100EB00063E6E7020347F4FE8347F4FE832684FCDF
:100EC000B697930604FF3697034737FF2380E70062
:100ED0008347F4FE8507A307F4FEC1BF834724FEC2
:100EE0003E85F2506254216182801D7186CEA2CC73
:100EF00080102326A4FAAE87A305F4FA232204FE69
:100F0000232404FE232604FE232204FC232404FCC1
:100F1000232604FC232804FC232A04FC232C04FCA1
:100F2000232E04FC232004FE232804FA232A04FA97
:100F3000232C04FA232E04FA232004FC854525459E
:100F4000EFB0C052854537050002EFB080568545A9
:100F500037451D00EF90600B930700202312F4FE2D
:100F6000E1472326F4FE8D472324F4FE930744FE35
:100F7000BE85B7170140138507C0EF80703F930708
:100F800000102312F4FE930780042326F4FE930737
:100F900044FEBE85B7170140138507C0EF80503D62
:100FA000232604FC232804FC232A04FC8547232C45
:100FB000F4FC232E04FC232004FE8347B4FA23030D
:100FC000F4FC8327C4FA83C78700A303F4FC8327B8
:100FD000C4FA83C7A7002304F4FC8327C4FA83C799
:100FE0009700A304F4FC8327C4FA83D7C700231215
:100FF000F4FC930744FCBE85B767004013850740A7
:10100000EF20F011230D04FAA30D04FA8547230EF7
:10101000F4FA99679387072E2318F4FA231904FA30
:101020008157231AF4FA9947231BF4FA231C04FA74
:1010300085472320F4FC930704FB3E85EF20103105
:101040000100F640664425618280011122CE001025
:101050002326A4FE8327C4FEFD8B0547B316F700A5
:1010600037E700E08327C4FE9583938707048A0748
:10107000BA9794C30100724405618280411122C66F
:10108000000883A741871387170023AAE1868545B7
:10109000B707004013850740EFF0606A0100324453
:1010A000410173002030011106CE22CC001023260E
:1010B000A4FEEF00713FF529F16713850720892D04
:1010C00003A7C1818327C4FED8C3EF40E0272A8746
:1010D0008327C4FE98C3B120D1280100F2406244A6
:1010E00005618280011106CE22CC00102326A4FEC9
:1010F0008327C4FEDC43BE85B797020013854736BD
:10110000EF90F14D8327C4FE9C43BE85B797020044
:1011100013854737EF90B14C0100F24062440561FE
:101120008280011106CE22CC0010232204FE23244B
:1011300004FE231604FE85450545EFB0803703A75E
:10114000C181B7470F0093870724B357F702C2073F
:10115000C183FD17C207C1832314F4FE89679387F7
:10116000F7702312F4FE231504FE231304FE9307E5
:1011700044FEBE8537050040EFD0C01F05468545BB
:1011800037050040EFD0906D854537050040EFD022
:101190007061854537050040EFF0605A1305C002C5
:1011A0006D350100F240624405618280011106CE76
:1011B00022CC0010232204FE232404FE231604FE66
:1011C00085450945EFB0E02E03A7C181B7470F0061
:1011D00093870724B357F702C207C183FD17C207DD
:1011E000C1832314F4FE89679387F7702312F4FEFA
:1011F000231504FE231304FE930744FEBE85B707A0
:10120000004013850740EFD0E01605468545B70737
:10121000004013850740EFD070648545B707004054
:1012200013850740EFD010588545B7070040138558
:101230000740EFF0C0501305D002013D0100F2401D
:10124000624405618280411122C6000801003244D7
:10125000410173002030411122C60008B7970200F7
:1012600013854738EF90F1463D24AA87BE85B7978E
:10127000020013858739EF909136812CAA87BE85AD
:10128000B79702001385873AEF9071358D2CAA87A6
:10129000BE85B79702001385873BEF90513401A0BC
:1012A0005D7186C696C49AC29EC022DE2ADC2EDA02
:1012B00032D836D63AD43ED242D046CE72CC76CA56
:1012C0007AC87EC6800813050008EF6030710100FF
:1012D000B640A6421643864372546255D2554256D2
:1012E000B256225792570258F248624ED24E424F9F
:1012F000B24F616173002030411122C60008EF1027
:10130000800901003244410173002030411122C69E
:1013100000082945D523854537050040EFF02042D8
:1013200001003244410173002030011122CE00102F
:10133000F32710002326F4FE8327C4FE3E85724463
:1013400005618280011122CE00102326A4FE83278E
:10135000C4FE739017000100724405618280011180
:1013600022CE0010F32720002326F4FE8327C4FE9C
:101370003E85724405618280011122CE0010232631
:10138000A4FE8327C4FE7390270001007244056108
:101390008280011122CE0010F32730002326F4FEB4
:1013A0008327C4FE3E85724405618280011122CEEE
:1013B00000102326A4FE8327C4FE7390370001008B
:1013C000724405618280011122CE0010F3270030A3
:1013D0002326F4FE8327C4FE3E8572440561828085
:1013E000011122CE00102326A4FE8327C4FE739091
:1013F00007300100724405618280011122CE001085
:10140000F32710302326F4FE8327C4FE3E85724462
:1014100005618280011122CE00102326A4FE8327BD
:10142000C4FE73901730010072440561828001117F
:1014300022CE0010F32750302326F4FE8327C4FE6B
:101440003E85724405618280011122CE0010232660
:10145000A4FE8327C4FE73905730010072440561D7
:101460008280011122CE0010F32700342326F4FEDF
:101470008327C4FE3E85724405618280011122CE1D
:1014800000102326A4FE8327C4FE739007340100B6
:10149000724405618280011122CE0010F3271034BE
:1014A0002326F4FE8327C4FE3E85724405618280B4
:1014B000011122CE00102326A4FE8327C4FE7390C0
:1014C00017340100724405618280011122CE0010A0
:1014D000F32720342326F4FE8327C4FE3E8572447E
:1014E00005618280011122CE00102326A4FE8327ED
:1014F000C4FE73902734010072440561828001119B
:1015000022CE0010F32730342326F4FE8327C4FEB6
:101510003E85724405618280011122CE001023268F
:10152000A4FE8327C4FE7390373401007244056122
:101530008280011122CE0010F32710F12326F4FE41
:101540008327C4FE3E85724405618280011122CE4C
:101550000010F32720F12326F4FE8327C4FE3E85E6
:10156000724405618280011122CE0010F32730F110
:101570002326F4FE8327C4FE3E85724405618280E3
:10158000011122CE0010F32740F12326F4FE832719
:10159000C4FE3E85724405618280011122CE001096
:1015A0008A872326F4FE8327C4FE3E8572440561A4
:1015B0008280411122C6000803A7C181B7177A00B3
:1015C00093870720B357F70213F7F70FB7370020B9
:1015D000238EE7D8B737002083C7C7D913970701F1
:1015E00041839307803EB307F702139707014183B6
:1015F000B7370020239FE7D80100324441018280A1
:10160000797122D60018232EA4FC37F700E054434A
:1016100037F700E0F99A54C3373700200347C7D99A
:10162000BA860327C4FD3307D7022326E4FE37F723
:1016300000E08326C4FEB68701481CCB232A07019D
:10164000B7F700E09843B7F700E01367070198C3C6
:10165000B7F700E09843B7F700E01367170298C3A5
:101660000100B7F700E0DC4313F717008547E31AE2
:10167000F7FEB7F700E09843B7F700E0799B98C30F
:101680000100325445618280797122D60018232EE0
:10169000A4FC37F700E0544337F700E0F99A54C34D
:1016A000373700200357E7D9BA860327C4FD33072D
:1016B000D7022326E4FE37F700E08326C4FEB68770
:1016C00001481CCB232A0701B7F700E09843B7F77E
:1016D00000E01367070198C3B7F700E09843B7F736
:1016E00000E01367170298C30100B7F700E0DC437E
:1016F00013F717008547E31AF7FEB7F700E09843A2
:10170000B7F700E0799B98C30100325445618280AD
:10171000397106DE22DC80002326A4FC8545916712
:1017200013854700EFA09054930700202312F4FE86
:101730008D472324F4FEE1472326F4FE930744FE5D
:10174000BE85B717014013850780EF80604283276D
:10175000C4FC232AF4FC231C04FC231D04FC231ECC
:1017600004FC231004FEA147231FF4FC930744FD4F
:10177000BE85B747014013850780EFF0A07185450E
:10178000B747014013850780EFF090240100F25025
:10179000625421618280797106D622D40018232EEA
:1017A000A4FC232CB4FC232AC4FC232604FE91A011
:1017B000010093050004B747014013850780EF003F
:1017C000E112AA87FDD7832784FD13871700232CF6
:1017D000E4FC83C70700C207C183BE85B747014049
:1017E00013850780EFF090548327C4FE85072326D6
:1017F000F4FE0327C4FE832744FDE34BF7FA832757
:1018000044FD3E85B250225445618280011122CEB2
:1018100000102326A4FE03A701818327C4FE3E9760
:10182000B787002093878772636DF70003A7018154
:101830008327C4FE3E97B70701209387078063F490
:10184000E700FD5739A803A701818327C4FE3E970F
:1018500023A8E18003A701818327C4FEB307F040DA
:10186000BA973E85724405618280011122CE001034
:101870002326A4FE8327C4FEFD8B0547B316F7007D
:1018800037E700E08327C4FE9583938707048A0720
:10189000BA9794C30100724405618280797122D69F
:1018A0000018232EA4FCB7F7FF1F9387D77E2324AD
:1018B000F4FEA30704FE05A8832784FE03C70700E0
:1018C0008327C4FD2380E7008327C4FD8507232EDB
:1018D000F4FC832784FEFD172324F4FE8347F4FEE3
:1018E0008507A307F4FE0347F4FE9547E3F6E7FCFC
:1018F0000100325445618280011122CE0010AA8776
:101900002317F4FE0357E4FEB777002083A7C757D9
:101910003E97B777002023AEE75601007244056179
:101920008280011106CE22CC0010B767002083D739
:1019300007BE95453E85EF40D007AA872317F4FEE2
:10194000B767002083D707BE85453E85EF40700608
:10195000AA872316F4FE8357E4FEFD8B638E0710DF
:1019600083C78187E207E18763C0070803C7418116
:10197000A147631EF704B767002083D707BE8145E0
:101980003E85EF401003AA872315F4FE8357A4FE7B
:1019900093E707202315F4FEB767002083D707BE1F
:1019A0000357A4FE3A8681453E85EF40300D238AD9
:1019B0000180B767002003D707BE83C74181C207F4
:1019C000C1833E86F9453A85EF40500B4DA083C751
:1019D000418191E7130700F8238CE18649A813079A
:1019E00000F8238CE18661A083C7C18713871700A5
:1019F0009376F70F238ED1861547639AE7068357B0
:101A0000C4FE93F70702A5E7238E0186B76700207F
:101A100083D707BE81453E85EF40A079AA8723156D
:101A2000F4FE8357A4FE93E707202315F4FEB7675F
:101A3000002083D707BE0357A4FE3A8681453E8522
:101A4000EF40D00383C7418193C7470013F7F70FD7
:101A5000238AE180B767002003D707BE83C741818F
:101A6000C207C1833E86F9453A85EF403001A38D18
:101A70000186238D018665AA03C781879307000825
:101A80006312F708238D018683C7B1871387170078
:101A90009376F70FA38DD1863D47639AE718A38D00
:101AA0000186238E0186238C0186B767002083D7A9
:101AB00007BE81453E85EF40C06FAA872315F4FE1F
:101AC0008357A4FE93E707202315F4FEB767002091
:101AD00083D707BE0357A4FE3A8681453E85EF4073
:101AE000E0792147238AE180B767002003D707BE4A
:101AF00083C74181C207C1833E86F9453A85EF40DD
:101B0000E07735A283C74181B1EFB767002083D763
:101B100007BE81453E85EF40C069AA872315F4FEC4
:101B20008357A4FE93E707202315F4FEB767002030
:101B300083D707BE0357A4FE3A8681453E85EF4012
:101B4000E0731147238AE180B767002003D707BEFF
:101B500083C74181C207C1833E86F9453A85EF407C
:101B6000E071F1A003C7418191476312F708238D0B
:101B7000018683C7B187138717009376F70FA38D6C
:101B8000D1863D476395E70AA38D0186238E0186A2
:101B9000238C0186B767002083D707BE81453E8529
:101BA000EF402061AA872315F4FE8357A4FE93E734
:101BB00007202315F4FEB767002083D707BE03571D
:101BC000A4FE3A8681453E85EF40406B2147238A3B
:101BD000E180B767002003D707BE83C74181C207F2
:101BE000C1833E86F9453A85EF40406989A083C7A5
:101BF000A187138717009376F70F238DD1861307DC
:101C000040066396E702238D0186B767002083D7DD
:101C100007BE216681453E85EF404066B7670020DC
:101C200083D707BE2146F9453E85EF402065010078
:101C3000F240624405618280411106C622C4000858
:101C400083C791879DE7B777002003A7C757B7776A
:101C5000002083A7075C1D8F9307100363FBE70039
:101C6000B777002003A7C757B777002023A0E75C0A
:101C70004D390100B240224441018280411106C623
:101C800022C40008EF00D10DEF00A17375370100E9
:101C9000B240224441018280011106CE22CC0010C4
:101CA000AA87A307F4FE0347F4FE85476318F700ED
:101CB000854537150140EF80C01B31A0854537159C
:101CC0000140EF80201D0100F240624405618280E6
:101CD000011106CE22CC0010AA87A307F4FE034709
:101CE000F4FE85476318F700894537150140EF80FA
:101CF000401831A0894537150140EF80A019010037
:101D0000F240624405618280011106CE22CC0010AF
:101D1000232204FE232404FE232604FE8545414598
:101D2000EFA0C0748D472312F4FEC1472326F4FEB2
:101D30008D472324F4FE930744FEBE8537150140EA
:101D4000EF701063054569370545B9370100F2406A
:101D5000624405618280411106C622C40008014523
:101D6000EFA0B0324145EFA030213565EFA0902DB6
:101D70000545EFA0903101001305D003EFA0700AD4
:101D8000AA87FDDB0100B24022444101828001119B
:101D900006CE22CC0010B767002083D707BE95453A
:101DA0003E85EF400041AA872317F4FEB767002065
:101DB00083D707BE85453E85EF40A03FAA872324F1
:101DC000F4FE832784FE918BD9C38357E4FEC1E3DD
:101DD000B767002083D707BE216681453E85EF4067
:101DE000E049B7470240938707809843B7470240CE
:101DF000938707806D9B98C31305401FEFF0DF8822
:101E0000B7470240938707809843B74702409387BC
:101E100007801367470098C3238D0186A38C018632
:101E2000238E0186A38D0186238C01862147238A78
:101E3000E180B767002003D707BE83C74181C2078F
:101E4000C1833E86F9453A85EF404043E9A8032522
:101E500084FEEF002173832784FE918BD9CB8327E7
:101E600084FE93F70702D1C7B767002083D707BE68
:101E7000C1453E85EF40E033AA872324F4FE832743
:101E800084FE918B81CFB78702409443B78702408D
:101E9000056713070780558F98C32DA88357E4FE65
:101EA00013F7F7018547630DF700B78702409443A6
:101EB000B7870240056713070780558F98C319A895
:101EC000B78702409443B78702407D771307F77FB7
:101ED000758F98C3B78702409443B7870240517704
:101EE0007D17758F98C31147A38CE186EF30B06ED4
:101EF0001DA8238D0186A38C0186238E0186A38DC8
:101F00000186238C01862147238AE180B767002060
:101F100003D707BE83C74181C207C1833E86F94507
:101F20003A85EF40A035F2406244056182807971C4
:101F300006D622D40018232EA4FCAE87231DF4FC61
:101F4000232604FEB78702409C4B2326F4FE8327FA
:101F5000C4FE8D9B2326F4FEB78702400327C4FEF0
:101F600098CBB78702409C432326F4FE0327C4FE88
:101F7000B78720FF9387F710F98F2326F4FE832776
:101F8000C4FD98438327C4FDDC435D8F8327C4FDD4
:101F90009C475D8F8327C4FDDC475D8F8327C4FD8D
:101FA0009C4B5D8F8327C4FDDC4B5D8F8327C4FD75
:101FB0009C4F5D8F8327C4FDDC4F5D8F8327C4FD5D
:101FC0009C535D8F8327C4FDDC535D8F8327C4FD45
:101FD0009C575D8F8327C4FDDC575D8F8327C4FD2D
:101FE0009C5B5D8F8327C4FDDC5BD98F0327C4FE18
:101FF000D98F2326F4FEB78702400327C4FE98C377
:10200000B78702409443B787024037071000558FC7
:1020100098C38327C4FD985F8327C4FDDC5F5D8F71
:102020008327C4FDBC435D8F8327C4FDFC435D8FC4
:102030008327C4FDBC475D8F8327C4FDFC475D8FAC
:102040008327C4FDBC4BB366F7008327C4FDF84B60
:10205000B7870240558FD8C3B78702400327C4FD16
:10206000384F98C7B78702400327C4FD784FD8C7B9
:10207000B78702409C4F2326F4FE0327C4FEC167A6
:10208000938717F4F98F2326F4FE8327C4FDBC53EE
:10209000139707018327C4FDFC535D8F8327C4FD7D
:1020A000BC575D8F8327C4FDFC575D8F8327C4FD1C
:1020B000BC5B5D8F8327C4FDFC5BD98F0327C4FE07
:1020C000D98F2326F4FEB78702400327C4FE98CF9A
:1020D0008327C4FDB45F8327C4FDF85FB787024040
:1020E000558FD8CF378702408567BA979C4F2326F4
:1020F000F4FE0327C4FEB747DEF8938737F2F98F63
:102100002326F4FE8327C4FD03A707088327C4FD05
:1021100083A747085D8F8327C4FD83A787085D8F4A
:102120008327C4FD83A7C7085D8F8327C4FD83A7CA
:1021300007095D8F8327C4FD83A747095D8F832728
:10214000C4FD83A787095D8F8327C4FD83A7C709C3
:102150005D8F8327C4FD83A7070AD98F0327C4FE99
:10216000D98F2326F4FE378702408567BA97032765
:10217000C4FE98CF8357A4FD216681453E85EF407C
:10218000E00FB767002083D707BE2146F9453E859B
:10219000EF40C00E85473E85B25022544561828093
:1021A000157186CFA2CD80112326A4F2896793876B
:1021B00007712317F4FE85457165EFA0C026B76748
:1021C000002005472390E7BE7936B7470240938742
:1021D00007809843B74702409387078013674700FB
:1021E00098C3EF30B022EF4030532945EFF04FC194
:1021F0008357E4FEFD172317F4FE8357E4FE89CBD3
:10220000378702408567BA979C43858BF9FF11A0F9
:102210000100B7F7FF1F938747709C43918393F7A3
:10222000F70FBD8B13F7F70FB7770020238CE75616
:10223000930704F33E85EF30901F856793870780EF
:102240002328F4F4232204F485472328F4F22326D8
:1022500004F493070020232CF4F4232E04F4B7078E
:1022600000802324F4F6232A04F68547232EF4F66F
:10227000232004F8232204F8232804FAB7070002D5
:10228000232AF4FAB7072000232EF4FA9307000854
:102290002322F4FC930700042324F4FC232804FCE9
:1022A000B767002003D707BE930704F3BA853E85BE
:1022B000BD398545B707018013851704EF40B06B22
:1022C0000100FE406E442D618280011122CE00107B
:1022D000AA872324B4FE2317F4FEB787002083A720
:1022E000876F9C4363D40700814755A08356E4FE63
:1022F000B787002083A7876F09677D17758FD8C3BD
:10230000B787002083A7876F032784FE98C7B78706
:10231000002003A7876FB787002023A2E71CB78799
:10232000002083A7876F9443B787002083A7876F18
:1023300037070030558F98C3B787002083A7876F72
:102340009443B787002083A7876F37070080558F96
:1023500098C3378702408567BA97DC4B918B89CF4A
:10236000378702408567BA971147D8CB3787024035
:102370008567BA9723A20700B787002083A7876FD6
:10238000DC473E87B787002023ACE76E85473E8554
:10239000724405618280011106CE22CC001037877D
:1023A00002408567BA97DC4B2326F4FE0327C4FE60
:1023B000C167F98FC5CB8327C4FE93F70704BDCB54
:1023C000B777002083C7875713F7F70F854763EE6A
:1023D000E7028327C4FE93F7070885CB37870240BF
:1023E0008567BA9713070008D8CB378702408567FF
:1023F000BA97FC47DC473E87B70700801CC3378786
:1024000002408567BA9723A4070013050004EF4034
:102410001042B787002083A7476F9C4363CC070017
:10242000B787002083A7476FDC473E87B787002028
:1024300023AAE76E8327C4FE858B89CB0545EF4031
:10244000103FB787002083A7471C9C438327C4FE07
:1024500063D707002D3A37050080EF40503D4165B6
:10246000EF40F03C0100F2406244056182800111BE
:1024700006CE22CC00102326A4FE79301305400698
:10248000EFF08FA00325C4FE213B0946B77700205B
:102490009385475CB777002013858755EF40E0357B
:1024A0001146B737002093858719B7770020138529
:1024B0000758EF400075B757002037770020130703
:1024C000075823ACE798B787002037770020130719
:1024D000875523A2E71C1305D004EFF00FB90100C4
:1024E000F2406244056182805D7186C6A2C48008A4
:1024F000232EA4FA232CB4FA232AC4FA2328D4FACC
:10250000930704FC1306C00281453E85EFF0902C32
:10251000930700602320F4FC9307405B2322F4FC24
:102520008567938747232324F4FC930720032326FE
:10253000F4FC8D472328F4FCB72755028907232A8A
:10254000F4FCB7270000938787C9232CF4FCB72736
:102550000000938707CD232EF4FCB7270000938754
:10256000A72C2320F4FEB7573412938787672324C0
:10257000F4FE930704FC3E85EF009108AA87A307A9
:10258000F4FE8347F4FE81C78347F4FE1DA0832633
:1025900004FB032644FB832584FB0325C4FBEF00D7
:1025A000017AAA87A307F4FE032504FBC9358347F4
:1025B000F4FE3E85B640264461618280011106CE5C
:1025C00022CC00102326A4FE0327C4FEB727014017
:1025D00093870740631DF700854513050020EF90A2
:1025E000B071814513050020EF9010711DA00327E5
:1025F000C4FEB737014093870780631CF700854509
:1026000013050040EF90506F814513050040EF9097
:10261000B06E0100F240624405618280797122D679
:102620000018232EA4FC232CB4FC232604FEA305AF
:1026300004FE8327C4FDDC432326F4FE0327C4FEE7
:10264000B707F1E09387F7EFF98F2326F4FE83278E
:1026500084FD9843832784FD9C4F5D8F832784FDF1
:10266000DC4F5D8F832784FDDC43A207D98F0327CE
:10267000C4FED98F2326F4FE8327C4FD0327C4FE9E
:10268000D8C38327C4FD9C472326F4FE0327C4FE3A
:10269000B7F7F1FF9387D77FF98F2326F4FE8327BF
:1026A00084FD984B832784FDDC475D8F832784FD61
:1026B0009C478607D98F0327C4FED98F2326F4FEB3
:1026C0008327C4FD0327C4FE98C78327C4FDDC57B6
:1026D0002326F4FE0327C4FEB70710FFFD17F98F6A
:1026E0002326F4FE832784FD83C74701FD1713F7D4
:1026F000F70F8347B4FED98FA305F4FE8347B4FEDA
:10270000D2070327C4FED98F2326F4FE8327C4FDF6
:102710000327C4FED8D701003254456182800111DD
:1027200022CE00102326A4FE8327C4FE23A0070088
:102730008327C4FE23A207008327C4FE23A4070027
:102740008327C4FE23A607008327C4FE23A807000F
:102750008327C4FE0547238AE70001007244056110
:102760008280011122CE00102326A4FE2324B4FE71
:10277000832784FE91CB8327C4FE9C4713E7170071
:102780008327C4FE98C709A88327C4FE9C4713F774
:10279000E7FF8327C4FE98C7010072440561828069
:1027A000011122CE00102326A4FE2324B4FE832789
:1027B00084FE91CB8327C4FE9C4713E70710832731
:1027C000C4FE98C709A88327C4FE9C4713F7F7EFF8
:1027D0008327C4FE98C70100724405618280797125
:1027E00022D60018232EA4FCAE87232AC4FC231D66
:1027F000F4FCA30704FE8357A4FDA307F4FE83277C
:1028000044FD99CB8327C4FDD8438347F4FE5D8FF5
:102810008327C4FDD8C321A88327C4FDD843834799
:10282000F4FE93C7F7FF7D8F8327C4FDD8C3010053
:10283000325445618280011122CE00102326A4FE6D
:102840008327C4FE9C4713E787008327C4FE98C7ED
:102850000100724405618280797122D60018232E0E
:10286000A4FC232604FE8327C4FD9C47A18B89C7B3
:1028700085472326F4FE19A0232604FE8327C4FEE1
:102880003E85325445618280011122CE00102326FC
:10289000A4FE8327C4FE9C4713E747008327C4FE9A
:1028A00098C70100724405618280797122D60018B0
:1028B000232EA4FC232604FE8327C4FD9C47918B72
:1028C00089C785472326F4FE19A0232604FE832703
:1028D000C4FE3E85325445618280011122CE001033
:1028E0002326A4FE2324B4FE832784FE99CB8327CA
:1028F000C4FE9847B70750005D8F8327C4FE98C772
:1029000019A88327C4FE9847B707B0FFFD177D8F2E
:102910008327C4FE98C701007244056182807971E3
:1029200022D60018232EA4FC232604FE8327C4FDF0
:102930009847B7074000F98F89C785472326F4FEDB
:1029400019A0232604FE8327C4FE3E853254456128
:102950008280797122D60018232EA4FCAE87A30DA5
:10296000F4FC232604FE232404FE8327C4FDDC4359
:102970002326F4FE0327C4FEC977FD17F98F23260B
:10298000F4FE8347B4FDFD172324F4FE832784FE61
:10299000B6070327C4FED98F2326F4FE8327C4FD80
:1029A0000327C4FED8C3010032544561828001115F
:1029B00022CE00102326A4FE2324B4FE832784FE07
:1029C00081CF8327C4FED8438567938707805D8FB7
:1029D0008327C4FED8C319A88327C4FED843FD7734
:1029E0009387F77F7D8F8327C4FED8C3010072448D
:1029F00005618280797122D60018232EA4FCAE874F
:102A00003687A30DF4FCB287230DF4FCBA87A30C20
:102A1000F4FC232604FE232404FE0347B4FDA5474B
:102A200063F6E7068327C4FDDC472326F4FE8347CD
:102A3000B4FD138767FFBA878607BA971D47B31798
:102A4000F7002324F4FE832784FE93C7F7FF0327B0
:102A5000C4FEF98F2326F4FE834694FD8347B4FD1C
:102A6000138767FFBA878607BA97B397F6002324C0
:102A7000F4FE0327C4FE832784FED98F2326F4FEA9
:102A80008327C4FD0327C4FED8C785A08327C4FDC0
:102A90009C4B2326F4FE0347B4FDBA878607BA97FA
:102AA0001D47B317F7002324F4FE832784FE93C742
:102AB000F7FF0327C4FEF98F2326F4FE834694FD17
:102AC0000347B4FDBA878607BA97B397F600232465
:102AD000F4FE0327C4FE832784FED98F2326F4FE49
:102AE0008327C4FD0327C4FE98CB0347A4FD994761
:102AF00063E6E7068327C4FDDC5B2326F4FE8347F9
:102B0000A4FD1387F7FFBA878A07BA977D47B317E3
:102B1000F7002324F4FE832784FE93C7F7FF0327DF
:102B2000C4FEF98F2326F4FE8346B4FD8347A4FD3B
:102B30001387F7FFBA878A07BA97B397F60023245B
:102B4000F4FE0327C4FE832784FED98F2326F4FED8
:102B50008327C4FD0327C4FED8DBE9A80347A4FDEF
:102B6000B14763E6E7068327C4FD9C5B2326F4FE9A
:102B70008347A4FD138797FFBA878A07BA977D47D3
:102B8000B317F7002324F4FE832784FE93C7F7FFCF
:102B90000327C4FEF98F2326F4FE8346B4FD834742
:102BA000A4FD138797FFBA878A07BA97B397F600F1
:102BB0002324F4FE0327C4FE832784FED98F232613
:102BC000F4FE8327C4FD0327C4FE98DBA5A083275A
:102BD000C4FDDC572326F4FE8347A4FD138737FF8B
:102BE000BA878A07BA977D47B317F7002324F4FE04
:102BF000832784FE93C7F7FF0327C4FEF98F23269C
:102C0000F4FE8346B4FD8347A4FD138737FFBA87DC
:102C10008A07BA97B397F6002324F4FE0327C4FE6D
:102C2000832784FED98F2326F4FE8327C4FD032740
:102C3000C4FED8D70100325445618280011122CEF2
:102C400000102326A4FE2324B4FE832784FE99CB00
:102C50008327C4FE9847B70710005D8F8327C4FE03
:102C600098C719A88327C4FE9847B707F0FFFD1738
:102C70007D8F8327C4FE98C701007244056182805E
:102C8000011122CE00102326A4FE8327C4FEFC4798
:102C9000C207C1833E85724405618280411122C60C
:102CA0000008B72701409387C7449C433E853244C0
:102CB00041018280011122CE00102326A4FE23248C
:102CC000B4FE832784FE91CB8327C4FEDC4313E745
:102CD00007408327C4FED8C309A88327C4FEDC436A
:102CE00013F7F7BF8327C4FED8C301007244056100
:102CF0008280011122CE00102326A4FE2324B4FEDC
:102D0000832784FE91CB8327C4FED84385675D8FDC
:102D10008327C4FED8C311A88327C4FED843FD77F8
:102D2000FD177D8F8327C4FED8C30100724405615F
:102D30008280797122D60018232EA4FC232CB4FCA7
:102D4000232604FE8327C4FD9C472326F4FE032785
:102D5000C4FEE577FD17F98F2326F4FE0327C4FE92
:102D6000832784FDD98F2326F4FE8327C4FD032700
:102D7000C4FE98C70100325445618280011122CE01
:102D800000102326A4FE2324B4FE832784FE91CBC7
:102D90008327C4FE9847A1675D8F8327C4FE98C729
:102DA00011A88327C4FE9847E177FD177D8F8327FD
:102DB000C4FE98C70100724405618280011122CED1
:102DC00000102326A4FE2324B4FE832784FE99CB7F
:102DD0008327C4FE9847B78720005D8F8327C4FEF2
:102DE00098C719A88327C4FE9847B787DFFFFD1748
:102DF0007D8F8327C4FE98C70100724405618280DD
:102E0000797122D60018232EA4FC232604FE8327E2
:102E1000C4FD9847B7072000F98F89C78547232647
:102E2000F4FE19A0232604FE8327C4FE3E853254F7
:102E300045618280797122D60018232EA4FCAE87CA
:102E40003687A30DF4FCB287230DF4FCBA87A30CDC
:102E5000F4FC232604FE232404FE232204FE03475D
:102E6000B4FDA54763F6E7068327C4FDDC472326A8
:102E7000F4FE8347B4FD138767FFBA878607BA97C6
:102E80001D47B317F7002324F4FE832784FE93C75E
:102E9000F7FF0327C4FEF98F2326F4FE834694FD33
:102EA0008347B4FD138767FFBA878607BA97B3973E
:102EB000F6002324F4FE0327C4FE832784FED98F63
:102EC0002326F4FE8327C4FD0327C4FED8C785A0AC
:102ED0008327C4FD9C4B2326F4FE0347B4FDBA8729
:102EE0008607BA971D47B317F7002324F4FE8327FC
:102EF00084FE93C7F7FF0327C4FEF98F2326F4FE51
:102F0000834694FD0347B4FDBA878607BA97B39703
:102F1000F6002324F4FE0327C4FE832784FED98F02
:102F20002326F4FE8327C4FD0327C4FE98CB832702
:102F3000C4FD9C5F2326F4FE8327C4FED1838D8BC2
:102F40002322F4FE832744FE93F7F70F0347A4FDE3
:102F5000B307F74093F7F70F890793F7F70F3E870B
:102F6000BA878A07BA977D47B317F7002324F4FE80
:102F7000832784FE93C7F7FF0327C4FEF98F232618
:102F8000F4FE0347B4FD832744FE93F7F70F83460F
:102F9000A4FDB387F64093F7F70F890793F7F70F70
:102FA000BE86B6878A07B697B317F7002324F4FEC8
:102FB0000327C4FE832784FED98F2326F4FE8327AC
:102FC000C4FD0327C4FE98DF0100325445618280AE
:102FD000797122D60018232EA4FCAE87A30DF4FC31
:102FE000232604FE232404FE8327C4FD9C5F23269E
:102FF000F4FE0327C4FEB707D0FFFD17F98F232681
:10300000F4FE8347B4FDFD172324F4FE832784FEDA
:10301000D2070327C4FED98F2326F4FE8327C4FDDD
:103020000327C4FE98DF0100325445618280797124
:1030300022D60018232EA4FCAE873287A30DF4FC01
:10304000BA87231CF4FC232604FE8327C4FD232611
:10305000F4FE0347B4FD8327C4FEBA972326F4FE8B
:103060008327C4FE3E87835784FD1CC3010032546E
:1030700045618280797122D60018232EA4FCAE8788
:10308000A30DF4FC232604FE8327C4FD2326F4FEAF
:103090000347B4FD8327C4FEBA979387870223268C
:1030A000F4FE8327C4FE9C43C207C1833E8532548D
:1030B00045618280797122D60018232EA4FC232C2E
:1030C000B4FC232604FE8327C4FDDC432326F4FE40
:1030D0000327C4FEB70740FF9387F7DFF98F232646
:1030E000F4FE0327C4FE832784FDD98F2326F4FE34
:1030F0008327C4FD0327C4FED8C3010032544561B1
:103100008280011122CE00102326A4FEAE873287D2
:103110002315F4FEBA872314F4FE0357A4FE832775
:10312000C4FED8D3035784FE8327C4FE98D701007A
:10313000724405618280797122D60018232EA4FC86
:10314000AE87A30DF4FC232604FE8327C4FDDC43D5
:103150002326F4FE8327C4FE819B2326F4FE8347A7
:10316000B4FD0327C4FED98F2326F4FE8327C4FDB4
:103170000327C4FED8C30100325445618280011187
:1031800022CE00102326A4FE8327C4FE99CFB727A2
:103190000140938707409447B72701409387074032
:1031A00037078000558F98C739A8B7270140938704
:1031B00007409447B727014093870740370780FFB0
:1031C0007D17758F98C701007244056182807971FF
:1031D00022D60018232EA4FCAE87A30DF4FC2326D0
:1031E00004FE8327C4FD98438347B4FDF98F89C744
:1031F00085472326F4FE19A0232604FE8327C4FE58
:103200003E85325445618280011122CE0010232672
:10321000A4FEAE87A305F4FE8347B4FE13C7F7FFF1
:103220008327C4FE98C301007244056182807971CE
:1032300022D60018232EA4FCAE87231DF4FC2326DF
:1032400004FE232404FE232204FE8357A4FDA1834D
:10325000C207C1832324F4FE8327C4FDDC43035744
:10326000A4FD1377F70FF98F2322F4FE8327C4FD03
:103270009843832784FEF98F81CB832744FE89C737
:1032800085472326F4FE19A0232604FE8327C4FEC7
:103290003E85325445618280797122D60018232EF2
:1032A000A4FCAE87231DF4FCA30704FE8357A4FDF2
:1032B000A183C207C183A307F4FE8347F4FE13C7AB
:1032C000F7FF8327C4FD98C3010032544561828013
:1032D000797122D60018232EA4FC9307B00223266E
:1032E000F4FEB7F7FF1F938707729C433E87C167C1
:1032F000FD17F98F2324F4FEB7F7FF1F938707729A
:103300009C43C1832322F4FE0327C4FD832784FE4C
:103310001D8FBA878A07BA9786073E878327C4FE20
:1033200085873E978327C4FEB347F702032744FEF1
:10333000B307F7402320F4FE832704FE3E85325472
:1033400045618280011122CE00102326A4FE232491
:10335000B4FE832784FE99CB8327C4FED843B707E6
:1033600000045D8F8327C4FED8C319A88327C4FE39
:10337000D843B70700FCFD177D8F8327C4FED8C351
:103380000100724405618280397106DE22DC800012
:103390002326A4FCA30704FEB9A80325C4FCEFF070
:1033A0008FC901000325C4FCEFF00FCBAA87FDFBFA
:1033B0000325C4FCEFF04FCD01000325C4FCEFF062
:1033C000CFCEAA87FDFB8327C4FCF8478347F4FED2
:1033D00093F7F70F420741838607930604FFB697DA
:1033E0002394E7FE8347F4FE93F7F70F850793F7DF
:1033F000F70FA307F4FE8347F4FE13F7F70FA54773
:10340000E3FDE7F8A30704FEF1A0230704FE5DA097
:103410008347E4FE93F7F70F8607130704FFBA9775
:1034200003D787FE8347E4FE93F7F70F85078607E8
:10343000930604FFB69783D787FE63F4E7068347B6
:10344000E4FE93F7F70F8607130704FFBA9783D7B5
:1034500087FE231BF4FC8347E4FE93F7F70F8507F1
:103460000347E4FE1377F70FBA868607130704FFB6
:10347000BA9703D787FE93971600930604FFB69773
:103480002394E7FE8347E4FE93F7F70F850703577E
:1034900064FD420741838607930604FFB697239491
:1034A000E7FE8347E4FE93F7F70F850793F7F70FDF
:1034B0002307F4FE8347E4FE13F7F70FA147E3F970
:1034C000E7F48347F4FE93F7F70F850793F7F70FB9
:1034D000A307F4FE8347F4FE13F7F70FA547E3F6BF
:1034E000E7F2231B04FCA30704FE35A88347F4FE80
:1034F00093F7F70F89078607130704FFBA9703D7D7
:1035000087FE835764FDC207C183BA97C207C18390
:10351000231BF4FC8347F4FE93F7F70F850793F71B
:10352000F70FA307F4FE8347F4FE13F7F70F954751
:10353000E3FEE7FA835764FD139707014183994738
:10354000B357F702139707014183835764FD93969E
:103550000701C1829947B3F7F60293960701C1822A
:103560008D47B3D7F602C207C183BA97C207C1839A
:10357000231BF4FC835764FDC207C183056713074F
:103580000780B307F740C207C183C207C1873E85E2
:10359000F250625421618280411106C622C40008A3
:1035A0000545EF80307E0145EF80D07D0100B240BF
:1035B000224441018280011122CE0010AA872317E4
:1035C000F4FE8357E4FE8DC7B7770040938707C0AA
:1035D00083D70703139707014183B7770040938789
:1035E00007C013672700420741832398E7021DA005
:1035F000B7770040938707C083D707031397070166
:103600004183B7770040938707C0759B420741838A
:103610002398E7020100724405618280011122CEE5
:1036200000102326A4FE8327C4FE8DC7B777004071
:10363000938707C083D70703139707014183B777A1
:103640000040938707C01367170042074183239800
:10365000E7021DA0B7770040938707C083D7070311
:10366000139707014183B7770040938707C0799B81
:10367000420741832398E70201007244056182807A
:10368000011122CE00102326A4FE8327C4FE8DC77D
:10369000B7770040938707C083D747031397070185
:1036A0004183B7770040938707C0136747004207FD
:1036B0004183239AE7021DA0B7770040938707C094
:1036C00083D74703139707014183B7770040938758
:1036D00007C06D9B42074183239AE70201007244B1
:1036E00005618280797122D60018AA87231FF4FC15
:1036F000231704FEB7770040938707C083D7C7021C
:103700002317F4FE8357E4FE93F7F7C72317F4FE5D
:103710000357E4FE8357E4FDD98F2317F4FEB777F0
:103720000040938707C00357E4FE2396E702010099
:10373000325445618280797122D60018AA87A30F7E
:10374000F4FC231704FEB7770040938707C083D7A4
:10375000C7022317F4FE8357E4FE93F707F82317F5
:10376000F4FE8347F4FD1397070141838357E4FE7A
:10377000D98F2317F4FEB7770040938707C003570C
:10378000E4FE2396E702010032544561828079719C
:1037900022D60018AA872E87231FF4FCBA87231E7F
:1037A000F4FC232604FEB7770040938707C0232646
:1037B000F4FE0357E4FD8327C4FEBA972326F4FEE4
:1037C0008327C4FE3E878357C4FD1CC301003254C7
:1037D00045618280797122D60018AA87231FF4FCE4
:1037E000232604FEB7770040938707C02326F4FE04
:1037F0000357E4FD8327C4FEBA972326F4FE8327EC
:10380000C4FE83D70700C207C1833E853254456199
:103810008280411122C60008B7770040938707C015
:1038200083D74703C207C18393F7071099C385471E
:1038300011A081473E85324441018280411122C658
:103840000008B7770040938707C083D747031397D3
:1038500007014183B7770040938707C013671700BC
:1038600042074183239AE7020100324441018280EA
:10387000411122C60008B7770040938707C083D75D
:103880004703C207C18393F7072099C3854711A057
:1038900081473E85324441018280411122C60008A1
:1038A000B7770040938707C083D747031397070173
:1038B0004183B7770040938707C01367270042070B
:1038C0004183239AE70201003244410182800111C1
:1038D00006CE22CC00102326A4FE0327C4FEB76721
:1038E000004093870740631DF700854537050002B8
:1038F000EF80F044814537050002EF80504419A85D
:10390000854537050004EF80904381453705000465
:10391000EF80F0420100F2406244056182807971DB
:1039200022D60018232EA4FC232CB4FCA30704FEEB
:10393000232404FE8327C4FD9C4313F7D7FF83276A
:10394000C4FD98C38327C4FD9C4313E71700832756
:10395000C4FD98C331A0832784FE85072324F4FE89
:103960008327C4FDDC4313F7170085476308F7007E
:10397000032784FEC167FD17E31FF7FC8327C4FDFF
:10398000DC4313F7170085476305F700A30704FE20
:1039900045AA832784FD98478547631BF700832743
:1039A000C4FD9C4313E707088327C4FD98C309A8F7
:1039B0008327C4FD9C4313F7F7F78327C4FD98C3FF
:1039C000832784FDD8478547631BF7008327C4FD01
:1039D0009C4313E707048327C4FD98C309A88327E2
:1039E000C4FD9C4313F7F7FB8327C4FD98C38327CB
:1039F00084FD984B8547631BF7008327C4FD9C43D8
:103A000013E707028327C4FD98C309A88327C4FDD1
:103A10009C4313F7F7FD8327C4FD98C3832784FDD8
:103A2000D84B8547631BF7008327C4FD9C4313E7EE
:103A300007018327C4FD98C309A88327C4FD9C43BD
:103A400013F7F7FE8327C4FD98C3832784FD984F9F
:103A50008547631BF7008327C4FD9C4313E787005A
:103A60008327C4FD98C309A88327C4FD9C4313F78B
:103A700077FF8327C4FD98C3832784FDD84F8547EC
:103A8000631BF7008327C4FD9C4313E7470083278C
:103A9000C4FD98C309A88327C4FD9C4313F7B7FF4F
:103AA0008327C4FD98C3832784FD83C7270013970A
:103AB000E701832784FD83C73700E2075D8F8327F3
:103AC00084FD83C74700C2075D8F832784FD83C7BA
:103AD0005700D2075D8F832784FD83D70700FD172A
:103AE0005D8F8327C4FDD8CF8327C4FD9C4313F784
:103AF000E7FF8327C4FD98C3232404FE31A0832756
:103B000084FE85072324F4FE8327C4FDDC4313F7DA
:103B1000170085476318F700032784FEC167FD1768
:103B2000E31FF7FC8327C4FDDC4313F71700854729
:103B30006315F700A30704FE21A08547A307F4FE41
:103B40008347F4FE3E85325445618280797122D6E6
:103B50000018232EA4FC232604FE8327C4FD83C75C
:103B6000A7003E878547B397E7002326F4FEB76793
:103B700000409387074003A70720B767004093875B
:103B800007401367170023A0E720B767004093871B
:103B9000074083A6C7218327C4FE13C7F7FFB76773
:103BA000004093870740758F23AEE7208327C4FD2D
:103BB00083C7C700D1E7B76700409387074083A654
:103BC000C7208327C4FE13C7F7FFB767004093875A
:103BD0000740758F23A6E7208327C4FD83D767009E
:103BE000C2070327C4FD03572700BA853767004083
:103BF000930607400327C4FD0347A7003A8633E72F
:103C0000B700930786048E07B69798C38327C4FD31
:103C100083D74700C2070327C4FD03570700BA85AF
:103C200037670040930607400327C4FD0347A700FA
:103C30003A8633E7B700930786048E07B697D8C352
:103C40008327C4FD03C7C70085476315F708B76717
:103C500000409387074083A6C720B767004093873B
:103C600007400327C4FE558F23A6E7208327C4FD02
:103C700083D70700C2070327C4FD03572700BA856F
:103C800037670040930607400327C4FD0347A7009A
:103C90003A8633E7B700930786048E07B69798C332
:103CA0008327C4FD83D74700C2070327C4FD0357FA
:103CB0006700BA8537670040930607400327C4FDB5
:103CC0000347A7003A8633E7B700930786048E07B9
:103CD000B697D8C38327C4FD83C7B7009DE3B767F2
:103CE00000409387074083A647208327C4FE13C75D
:103CF000F7FFB767004093870740758F23A2E7203F
:103D000005A0B76700409387074083A64720B767A1
:103D10000040938707400327C4FE558F23A2E72066
:103D20008327C4FD83D7870095E3B7670040938757
:103D3000074083A647218327C4FE13C7F7FFB76751
:103D4000004093870740758F23AAE7208327C4FD8F
:103D500003D7870085476311F702B7670040938751
:103D6000074083A64721B767004093870740032792
:103D7000C4FE558F23AAE7208327C4FD984B8547AF
:103D80006311F702B76700409387074083A6C721F6
:103D9000B7670040938707400327C4FE558F23AEC3
:103DA000E720B76700409387074003A70720B7675E
:103DB000004093870740799B23A0E72001003254FD
:103DC00045618280011122CE00102326A4FE8327A4
:103DD000C4FE23A407008327C4FE23A6070083276D
:103DE000C4FE23A807008327C4FE23AA0700832755
:103DF000C4FE23AC07008327C4FE23AE070083273D
:103E0000C4FE238107008327C4FEA3810700832704
:103E1000C4FE0D472382E7008327C4FE0947A3821F
:103E2000E7008327C4FE05472390E70001007244A2
:103E300005618280011122CE0010AA87A307F4FE3B
:103E4000B76700409387074003A70720B767004084
:103E5000938707401367170023A0E720B767004048
:103E60009387074083A60720B767004093870740E2
:103E700071771307170F758F23A0E720B7670040EE
:103E80009387074083A607208347F4FE1397870094
:103E9000B767004093870740558F23A0E720B76797
:103EA00000409387074003A70720B7670040938728
:103EB0000740799B23A0E7200100724405618280BE
:103EC000011122CE00102326A4FE2324B4FE832752
:103ED00084FE91CB8327C4FE9843C1675D8F8327FF
:103EE000C4FE98C311A88327C4FE9843C177FD1769
:103EF0007D8F8327C4FE98C30100724405618280D0
:103F0000011122CE00102326A4FE2324B4FE832711
:103F100084FEA1CB8327C4FE9C4313E707088327B5
:103F2000C4FE98C38327C4FE83A7471813E707106E
:103F30008327C4FE23A2E7188327C4FE83A747195B
:103F400013E707108327C4FE23AAE7188327C4FEBC
:103F500083A7471A13E707108327C4FE23A2E71A93
:103F6000B9A08327C4FE9C4313F7F7F78327C4FE49
:103F700098C38327C4FE83A7471813F7F7EF832757
:103F8000C4FE23A2E7188327C4FE83A7471913F7AB
:103F9000F7EF8327C4FE23AAE7188327C4FE83A76D
:103FA000471A13F7F7EF8327C4FE23A2E71A01008D
:103FB000724405618280797122D60018232EA4FCF8
:103FC000232CB4FCA30704FE8327C4FD9847B7073E
:103FD00000047D8FB70700046315F700A30704FEF4
:103FE00081A08327C4FD9847B70700087D8FB707D6
:103FF00000086316F7008547A307F4FE15A0832782
:10400000C4FD9847B70700107D8FB70700106316EF
:10401000F7008947A307F4FE21A09147A307F4FE08
:104020000347F4FE91476306F71A8347F4FE03271C
:10403000C4FDE1079207BA9798438347F4FE058BC6
:104040008326C4FDE1079207B69798C3832784FDB2
:1040500083C7870085EF8347F4FE0327C4FDE1078C
:104060009207BA979443832784FD9C43D60703277E
:1040700084FD034797005D8F8347F4FE558F8326A9
:10408000C4FDE1079207B69798C381A08347F4FE69
:104090000327C4FDE1079207BA979443832784FD61
:1040A000DC438E07032784FD03478700D98F03274E
:1040B00084FD034797005D8F8347F4FE558F832669
:1040C000C4FDE1079207B69798C3832784FD83C791
:1040D000A700BD8B13F7F70F832784FD2385E70027
:1040E0008347F4FE0327C4FDE1079207BA97D8433C
:1040F0008347F4FE419B8326C4FDE1079207B697F0
:10410000D8C38347F4FE0327C4FDE1079207BA979B
:10411000D843832784FD83C7A700BE868347F4FE68
:10412000558F8326C4FDE1079207B697D8C383272E
:1041300084FD83C7E70013978701832784FD83C726
:10414000D700C2075D8F832784FD83C7C700A207FE
:104150005D8F832784FD83C7B700BE868347F4FE47
:10416000558F8326C4FDE1079207B69798C783272A
:1041700084FD83C7270113978701832784FD83C7A5
:104180001701C2075D8F832784FD83C70701A2073C
:104190005D8F832784FD83C7F700BE868347F4FEC7
:1041A000558F8326C4FDE1079207B697D8C783478A
:1041B000F4FE0327C4FDE1079207BA9798438347AB
:1041C000F4FE136717008326C4FDE1079207B69734
:1041D00098C38347F4FE3E853254456182807971ED
:1041E00022D60018232EA4FCAE87A30DF4FC2326B0
:1041F00004FE8347B4FD05476380E70209476388EF
:10420000E7029DEF8327C4FD9847B70700048D0799
:10421000F98F2326F4FE05A88327C4FD9847B70726
:10422000000893870730F98F2326F4FE29A88327F7
:10423000C4FD9847B7070310F98F2326F4FE21A089
:10424000232604FE01000327C4FEB7070008938756
:1042500007106308F7060327C4FEB7070008938713
:10426000071063E4E7020327C4FEB70700048507CD
:104270006306F7040327C4FEB70700048D0763082D
:10428000F7048327C4FE9DC7B9A80327C4FEB70758
:104290000110630BF7020327C4FEB7070310630086
:1042A000F7040327C4FEB7070008938707306304A9
:1042B000F70215A889472326F4FE0DA8232604FE3D
:1042C00035A0232604FE1DA0232604FE05A0854755
:1042D0002326F4FE21A885472326F4FE01A885475E
:1042E0002326F4FE21A0232604FE01008327C4FE1A
:1042F00093F7F70F3E85325445618280011122CE3B
:1043000000102326A4FEAE87A305F4FE8347B4FE67
:104310000547638FE70009476385E7028DEF832731
:10432000C4FE9C4713E707088327C4FE98C72DA047
:104330008327C4FE9847A1675D8F8327C4FE98C773
:1043400021A88327C4FE9847B70780005D8F832785
:10435000C4FE98C711A0010001007244056182806B
:10436000011122CE00102326A4FEAE872322C4FE14
:10437000A305F4FE8347B4FE0327C4FEED079207AE
:10438000BA979C4393F7F70F918B13F7F70F832797
:1043900044FE2384E700832744FE83C7870085E328
:1043A0008347B4FE0327C4FEED079207BA979C43E8
:1043B000D58313F7F77F832744FE98C315A083475F
:1043C000B4FE0327C4FEED079207BA979C4313D7A8
:1043D0003700B7070020FD177D8F832744FED8C321
:1043E0008347B4FE0327C4FEED079207BA979C43A8
:1043F00093F7F70F898B13F7F70F832744FEA384F6
:10440000E7008347B4FE0327C4FEED079207BA977F
:10441000DC4393F7F70FBD8B13F7F70F832744FEA9
:104420002385E7008347B4FE0327C4FEED07920708
:10443000BA97DC43A18313F7F70F832744FEA389C0
:10444000E7008347B4FE0327C4FEED079207BA973F
:104450009C4713F7F70F832744FEA385E7008347A4
:10446000B4FE0327C4FEED079207BA979C47A183C9
:1044700013F7F70F832744FE2386E7008347B4FE34
:104480000327C4FEED079207BA979C47C18313F731
:10449000F70F832744FEA386E7008347B4FE032774
:1044A000C4FEED079207BA979C47E18313F7F70F15
:1044B000832744FE2387E7008347B4FE0327C4FE17
:1044C000ED079207BA97DC4713F7F70F832744FEEF
:1044D000A387E7008347B4FE0327C4FEED079207D6
:1044E000BA97DC47A18313F7F70F832744FE23888D
:1044F000E7008347B4FE0327C4FEED079207BA978F
:10450000DC47C18313F7F70F832744FEA388E70036
:104510008347B4FE0327C4FEED079207BA97DC4732
:10452000E18313F7F70F832744FE2389E7008347CE
:10453000B4FE91EB8327C4FEDC4713E70702832711
:10454000C4FED8C709A88327C4FE9C4B13E7070203
:104550008327C4FE98CB010072440561828001115B
:1045600022CE00102326A4FEAE87A305F4FE8347C7
:10457000B4FE91EB8327C4FEDC4713E707028327D1
:10458000C4FED8C709A88327C4FE9C4B13E70702C3
:104590008327C4FE98CB0100724405618280797143
:1045A00022D60018232EA4FCAE87A30DF4FCA3078B
:1045B00004FE8347B4FD91EB8327C4FDDC4793F7EA
:1045C000F70F8D8BA307F4FE0DA00347B4FD8547BD
:1045D000631BF7008327C4FD9C4B93F7F70F8D8B6C
:1045E000A307F4FE19A0A30704FE8347F4FE3E854B
:1045F000325445618280797122D60018232EA4FCA2
:10460000AE87A30DF4FCA30704FEC167FD172324A6
:10461000F4FE8347B4FDB1EB8327C4FD9C43F19BBB
:1046200013E717008327C4FD98C331A0832784FEB6
:10463000FD172324F4FE8327C4FDDC4313F7370062
:1046400085476305F700832784FEEDF38327C4FDC8
:10465000DC4313F7370085476305F700A30704FE23
:1046600065A88547A307F4FE45A80347B4FD854721
:104670006314F7048327C4FD9C4313F7C7FF832704
:10468000C4FD98C331A0832784FEFD172324F4FEC4
:104690008327C4FDDC438D8B81C7832784FEE5F728
:1046A0008327C4FDDC438D8B81C7A30704FEADA027
:1046B0008547A307F4FE8DA00347B4FD8947631B1C
:1046C000F7048327C4FD9C43F19B13E7270083274E
:1046D000C4FD98C331A0832784FEFD172324F4FE74
:1046E0008327C4FDDC4313F7370089476305F700D0
:1046F000832784FEEDF38327C4FDDC4313F73700E3
:1047000089476305F700A30704FE39A08547A3077F
:10471000F4FE19A0A30704FE8347F4FE3E8532543D
:1047200045618280797122D60018232EA4FCA3074C
:1047300004FE8327C4FD9C43F19B13E727008327D6
:10474000C4FD98C38327C4FDDC4313F737008947B2
:104750006315F7008547A307F4FE8347F4FE3E8503
:10476000325445618280797122D60018232EA4FC30
:10477000C167FD172326F4FEA30504FE8327C4FDAD
:104780009C4313F7D7FF8327C4FD98C331A0832729
:10479000C4FEFD172326F4FE8327C4FDDC4313F774
:1047A000270089476315F7008327C4FEEDF38327AD
:1047B000C4FDDC4313F7270089476305F7008547ED
:1047C000A305F4FE8347B4FE3E85325445618280E2
:1047D000797122D60018232EA4FCA30704FE832798
:1047E000C4FD9C4F93F7F70F93F70707A307F4FE59
:1047F0008347F4FE3E85325445618280797122D62A
:104800000018232EA4FCA30704FE8327C4FD9C4F9D
:10481000E183A307F4FE8347F4FE3E8532544561ED
:104820008280797122D60018232EA4FCA30704FEEF
:104830008327C4FD9C4FC183A307F4FE8347F4FE86
:104840003E85325445618280011122CE001023261C
:10485000A4FE2324B4FE2322C4FE832744FE99CB66
:104860008327C4FED84B832784FE5D8F8327C4FE35
:10487000D8CB21A88327C4FED84B832784FE93C7B7
:10488000F7FF7D8F8327C4FED8CB010072440561FA
:104890008280797122D60018232EA4FC232CB4FC2C
:1048A000232604FE032784FDB707F000F98F9DC37C
:1048B0008327C4FD984F832784FD7D8FB7071000A1
:1048C000FD17F98F89C785472326F4FE6DA8232697
:1048D00004FE55A8032784FDB7070001F98F9DC387
:1048E0008327C4FDD843832784FD7D8FB70710003D
:1048F000FD17F98F89C785472326F4FE69A0232673
:1049000004FE51A0032784FDB7070008F98F9DC35B
:104910008327C4FD9847832784FD7D8FB707100048
:10492000FD17F98F89C785472326F4FEA9A82326FA
:1049300004FE91A8032784FDB7070002F98F9DC3E9
:104940008327C4FDD847832784FD7D8FB7071000D8
:10495000FD17F98F89C785472326F4FE2DA023264E
:1049600004FE15A08327C4FD984B832784FD7D8F0B
:10497000B7071000FD17F98F89C785472326F4FE76
:1049800019A0232604FE8327C4FE3E8532544561C8
:104990008280797122D60018232EA4FC232CB4FC2B
:1049A000232604FE032784FDB707F030938707070B
:1049B0006317F7008327C4FD23AC070095A00327E6
:1049C00084FDB7071000FD17F98F2326F4FE032797
:1049D00084FDB7070002F98F99C78327C4FD032719
:1049E000C4FED8C735A8032784FDB7070004F98F94
:1049F00099C78327C4FD0327C4FE98CB15A00327BE
:104A000084FDB7070008F98F99C78327C4FD0327E2
:104A1000C4FE98C731A08327C4FD0327C4FED8C3B2
:104A20000100325445618280797106D622D4001883
:104A3000232EA4FC232CB4FC232604FE8327C4FDD0
:104A4000D84B832784FDF98F638A071C032784FDD5
:104A5000930700046307F712032784FD93070004FC
:104A600063E8E704032784FD91476308F70C0327F5
:104A700084FD914763EDE700032784FD8547630AC2
:104A8000F708032784FD89476300F70A61A203271B
:104A900084FDC1476305F70C032784FD93070002DB
:104AA0006308F70C032784FDA1476301F70A9DA261
:104AB000832784FD93870780638B0712032784FD78
:104AC00085679387078063E5E702032784FD9307E3
:104AD0000020630CF70E032784FD93070040630F4B
:104AE000F70E032784FD930700106307F70C1DA240
:104AF000032784FDC167630FF708032784FDB70709
:104B000002006302F70A032784FDA167630BF70E17
:104B100011A28327C4FD9847C167938517103A8572
:104B200085242326A4FEEDA88327C4FDDC478D45FC
:104B30003E85B9242326A4FEE5A08327C4FDDC47D7
:104B4000A1453E85352C2326A4FED9A88327C4FD84
:104B5000DC47C1453E852D242326A4FED1A0832712
:104B6000C4FD9C4B8D453E85212C2326A4FE4DA8DB
:104B70008327C4FD9C4BA1453E8519242326A4FE12
:104B800045A08327C4FD9C4BC1453E85D52A2326DD
:104B9000A4FE79A08327C4FDDC43A1453E85CD2238
:104BA0002326A4FEB5A88327C4FDDC43C1453E856A
:104BB000C12A2326A4FEADA08327C4FD9C4F8545B2
:104BC0003E857D2A2326A4FEA1A88327C4FD9C4FF1
:104BD00089453E8575222326A4FE99A08327C4FD1E
:104BE0009C4F91453E85692A2326A4FE15A883275C
:104BF000C4FD9C4F930500073E8559222326A4FE41
:104C000005A08327C4FDDC4391453E85952A2326D4
:104C1000A4FE39A0232604FE010019A0232604FEC9
:104C20008327C4FE3E85B250225445618280011123
:104C300022CE00102326A4FE2324B4FE032784FEE4
:104C4000930700106309F70E032784FE93070010F3
:104C500063E4E704032784FEA1476305F70A0327FB
:104C600084FEA14763EDE700032784FE8547630FB9
:104C7000F706032784FE91476301F708F5A8032789
:104C800084FE930700026304F708032784FE93075A
:104C900000046303F708CDA0832784FE9387078071
:104CA000D5CB032784FE85679387078063EFE700F2
:104CB000032784FE930700206304F708032784FE7C
:104CC000930700406303F70845A8032784FEC167E4
:104CD0006309F704032784FEB70702006308F7049B
:104CE000032784FEA1676300F70879A08327C4FE29
:104CF00041671307171098C741A08327C4FE2147B7
:104D0000D8C79DA88327C4FE4147D8C7B5A083272D
:104D1000C4FE214798CB8DA08327C4FE414798CB82
:104D2000A1A88327C4FE2147D8C3B9A08327C4FE06
:104D30004147D8C391A08327C4FE1147D8C32DA8EB
:104D40008327C4FE1147D8C305A88327C4FE114793
:104D5000D8C31DA08327C4FE23AC07008327C4FE4D
:104D60001147D8C311A88327C4FE23AC07008327AB
:104D7000C4FE1147D8C3010001007244056182805E
:104D8000797122D60018232EA4FC232CB4FC2326F0
:104D900004FE0327C4FD832784FDF98F89C7854757
:104DA0002326F4FE19A0232604FE8327C4FE3E8595
:104DB000325445618280411122C60008B737024053
:104DC000054798C70100324441018280011122CE7B
:104DD00000102326A4FEB73702400327C4FE98C361
:104DE000B73702409C433E857244056182807971E9
:104DF00022D60018232EA4FC232CB4FC232604FE68
:104E0000232604FE05A08327C4FE8A070327C4FDCA
:104E10003E97B7370240184398C38327C4FE8507DF
:104E20002326F4FE0327C4FE832784FDE36DF7FCED
:104E3000B73702409C433E85325445618280411120
:104E400022C60008B73702409C433E8532444101E8
:104E50008280011122CE0010AA87A307F4FEB73783
:104E600002400347F4FE2382E7000100724405611B
:104E70008280411122C60008B737024083C747002D
:104E800093F7F70F3E85324441018280411106C6F7
:104E900022C40008854537050020EF70406A81452F
:104EA00037050020EF70A0690100B24022444101A3
:104EB0008280797122D60018232EA4FC232CB4FC06
:104EC000232604FE232404FEB7770040938707407F
:104ED0009C432326F4FE8327C4FD05677917B31787
:104EE000F70093C7F7FF0327C4FEF98F2326F4FECC
:104EF000832784FD9843832784FDDC435D8F8327CC
:104F000084FD9C475D8F832784FDDC47D98F232454
:104F1000F4FE8327C4FD032784FEB317F70003279D
:104F2000C4FED98F2326F4FEB7770040938707404D
:104F30000327C4FE98C301003254456182800111E9
:104F400022CE00102326A4FE8327C4FE23A0070040
:104F50008327C4FE23A207008327C4FE23A40700DF
:104F60008327C4FE23A607000100724405618280E6
:104F7000011122CE00102326A4FE2324B4FE832791
:104F800084FE95C3B77700409387074094438327F7
:104F9000C4FE05473317F700B777004093870740F3
:104FA000558F98C31DA0B77700409387074094435F
:104FB0008327C4FE0547B317F70013C7F7FFB7777A
:104FC000004093870740758F98C3010072440561C4
:104FD0008280011122CE00102326A4FE2324B4FED9
:104FE000832784FE95C3B777004093870740944397
:104FF0008327C4FE05673317F700B7770040938710
:105000000740558F98C31DA0B7770040938707408E
:1050100094438327C4FE0567B317F70013C7F7FF50
:10502000B777004093870740758F98C3010072449B
:1050300005618280011122CE00102326A4FE2324C4
:10504000B4FE832784FE9DC3B77700409387074053
:10505000D4438327C4FE918305473317F700B777FE
:10506000004093870740558FD8C325A0B7770040ED
:1050700093870740D4438327C4FE91830547B31722
:10508000F70013C7F7FFB777004093870740758F86
:10509000D8C30100724405618280011122CE001044
:1050A0002326A4FE8327C4FE91CFB77700409387C1
:1050B0000740D843B777004093870740136737000E
:1050C000D8C321A8B777004093870740D843B77764
:1050D000004093870740719BD8C30100724405616B
:1050E0008280011122CE00102326A4FE2324B4FEC8
:1050F0002322C4FE832744FE9DC3B77700409387D5
:10510000074094438327C4FE032784FE3317F70028
:10511000B777004093870740558F98C325A0B7778E
:1051200000409387074094438327C4FE032784FEEF
:10513000B317F70013C7F7FFB7770040938707400F
:10514000758F98C30100724405618280797122D6FF
:105150000018232EA4FCAE87231DF4FC232604FE96
:10516000B7770040938707402326F4FE0327C4FE49
:105170008327C4FDBA97A1072326F4FE8327C4FE24
:105180003E878357A4FD1CC30100325445618280D1
:10519000797122D60018232EA4FCAE87231DF4FCBF
:1051A000232604FEB7770040938707402326F4FEAA
:1051B0000327C4FE8327C4FDBA97D1072326F4FE34
:1051C0008327C4FE3E878357A4FD1CC301003254CD
:1051D00045618280797122D60018232EA4FCAE8707
:1051E0003287231DF4FCBA87231CF4FC232604FE1B
:1051F000232404FE0327C4FDA147631CF700835743
:10520000A4FD13978700835784FDD98F2326F4FECE
:1052100011A88357A4FD13970701835784FDD98FE5
:105220002326F4FEB7770040938707402324F4FE3B
:105230000327C4FD832784FEBA979387070223249C
:10524000F4FE832784FE0327C4FE98C30100325472
:1052500045618280797122D60018232EA4FC232672
:1052600004FEB7770040938707402326F4FE832788
:10527000C4FD13D727008327C4FEBA979387C702BC
:105280002326F4FE8327C4FE9C43C207C1833E85C8
:10529000325445618280411122C60008B7F7FF1FD2
:1052A000938747709C43C1833E853244410182808D
:1052B000411122C60008B7F7FF1F93874770984334
:1052C000C167FD17F98F3E8532444101828001118B
:1052D00022CE0010F327007C2326F4FE8327C4FE91
:1052E0003E85724405618280011122CE0010232682
:1052F000A4FE8327C4FE7390077C010072440561FD
:105300008280797106D622D40018232EA4FC232C87
:10531000B4FC832784FD89C70325C4FDF13705A0AC
:105320007D372326A4FE8327C4FD93C7F7FF0327F9
:10533000C4FEF98F2326F4FE0325C4FE7537010051
:10534000B250225445618280411122C60008B7F74D
:10535000FF1F938747709C433E8532444101828002
:10536000011122CE00102326A4FE8327C4FE9843F9
:10537000C167F9177D8F8327C4FE98C38327C4FEB6
:1053800023A007008327C4FE23A207008327C4FEAF
:1053900023A407008327C4FE23A607000327C4FE17
:1053A000B7070240A107631BF700B7070240D843C5
:1053B000B70702401367F700D8C345AC0327C4FE04
:1053C000B7070240F107631BF700B7070240D84355
:1053D000B70702401367070FD8C341AC0327C4FEC9
:1053E000B707024093870703631DF700B707024022
:1053F000D443B70702400567130707F0558FD8C39A
:10540000ADA40327C4FEB707024093874704631B7C
:10541000F700B7070240D443B70702403D67558FF6
:10542000D8C3A1A40327C4FEB7070240938787050A
:10543000631CF700B7070240D443B70702403707A1
:105440000F00558FD8C315A40327C4FEB707024029
:105450009387C706631CF700B7070240D443B7071A
:1054600002403707F000558FD8C301A40327C4FEBC
:10547000B707024093870708631CF700B70702408D
:10548000D443B70702403707000F558FD8C3F1AA9E
:105490000327C4FEB707024093878740631FF700C6
:1054A000B707024093870740D843B7070240938766
:1054B00007401367F700D8C34DAA0327C4FEB707F8
:1054C00002409387C741631FF700B70702409387E5
:1054D0000740D843B7070240938707401367070F79
:1054E000D8C361A20327C4FEB707024093870743CE
:1054F0006311F702B707024093870740D443B70709
:105500000240938707400567130707F0558FD8C3FC
:10551000A9AA0327C4FEB707024093874744631F25
:10552000F700B707024093870740D443B70702400C
:10553000938707403D67558FD8C305AA0327C4FE4C
:10554000B7070240938787456310F702B707024009
:1055500093870740D443B707024093870740370734
:105560000F00558FD8C311A20327C4FEB70702400E
:105570009387C7466310F702B70702409387074037
:10558000D443B7070240938707403707F000558F91
:10559000D8C3E1A80327C4FEB70702409387074892
:1055A0006310F702B707024093870740D443B70759
:1055B0000240938707403707000F558FD8C375A067
:1055C0000327C4FEB707024093870749631FF7000C
:1055D000B70702409387074DD843B7070240938728
:1055E000074D1367F700D8C349A00327C4FEB707C8
:1055F00002409387074A631FF700B707024093876B
:10560000074DD843B70702409387074D1367070F2D
:10561000D8C3A1A80327C4FEB70702409387074B4E
:105620006311F702B70702409387074DD443B707CA
:1056300002409387074D0567130707F0558FD8C3BE
:105640002DA00327C4FEB70702409387074C631EB3
:10565000F700B70702409387074DD443B7070240CE
:105660009387074D3D67558FD8C30100724405618C
:105670008280797122D60018232EA4FC232CB4FC3E
:10568000232604FE8327C4FD9C432326F4FE032720
:10569000C4FEE177BD07F98F2326F4FE832784FD3E
:1056A0009847832784FD9C535D8F832784FD9C4B03
:1056B0005D8F832784FDDC4B5D8F832784FD9C4FAA
:1056C0005D8F832784FDDC4F5D8F832784FDDC5352
:1056D0005D8F832784FD9C57D98F0327C4FED98F04
:1056E0002326F4FE8327C4FD0327C4FE98C3832723
:1056F00084FDD8478327C4FDD8C3832784FD9843FE
:105700008327C4FD98C7832784FDD8438327C4FD1E
:10571000D8C70100325445618280011122CE0010A9
:105720002326A4FE8327C4FE23A007008327C4FEEC
:1057300023A207008327C4FE23A407008327C4FEF7
:1057400023A607008327C4FE23A807008327C4FEDF
:1057500023AA07008327C4FE23AC07008327C4FEC7
:1057600023AE07008327C4FE23A007028327C4FEBD
:1057700023A207028327C4FE23A407020100724468
:1057800005618280011122CE00102326A4FE23246D
:10579000B4FE832784FE91CB8327C4FE9C4313E78A
:1057A00017008327C4FE98C311A88327C4FE98431B
:1057B000C167F9177D8F8327C4FE98C30100724427
:1057C00005618280011122CE00102326A4FE23242D
:1057D000B4FE2322C4FE832744FE99CB8327C4FE54
:1057E0009843832784FE5D8F8327C4FE98C321A836
:1057F0008327C4FE9843832784FE93C7F7FF7D8FDA
:105800008327C4FE98C301007244056182800111A0
:1058100022CE00102326A4FEAE872315F4FE0357E4
:10582000A4FE8327C4FED8C30100724405618280B0
:10583000011122CE00102326A4FE8327C4FEDC43E0
:10584000C207C1833E85724405618280797122D688
:105850000018232EA4FC232604FE232404FE032781
:10586000C4FDB7070010F98F89CBB70702409387B3
:1058700007409C432324F4FE25A00327C4FDB7075B
:105880000020F98F89CBB70702409387074D9C43CF
:105890002324F4FE31A0B70702409C432324F4FEE6
:1058A000032784FE8327C4FDF98F89C785472326F4
:1058B000F4FE19A0232604FE8327C4FE3E8532543D
:1058C00045618280011122CE00102326A4FE032709
:1058D000C4FEB7070010F98F89CBB7070240938742
:1058E00007400327C4FED8C325A00327C4FEB7077B
:1058F0000020F98F89CBB70702409387074D032714
:10590000C4FED8C331A0B70702400327C4FED8C3E2
:105910000100724405618280797122D60018232E1D
:10592000A4FC232604FE232404FE0327C4FDB7079A
:105930000010F98F89CBB7070240938707409C433B
:105940002324F4FE25A00327C4FDB7070020F98F08
:1059500089CBB70702409387074D9C432324F4FE6D
:1059600031A0B70702409C432324F4FE032784FEA2
:105970008327C4FDF98F89C785472326F4FE19A024
:10598000232604FE8327C4FE3E853254456182806F
:10599000011122CE00102326A4FE0327C4FEB70760
:1059A0000010F98F89CBB707024093870740032780
:1059B000C4FED8C325A00327C4FEB7070020F98F73
:1059C00089CBB70702409387074D0327C4FED8C38E
:1059D00031A0B70702400327C4FED8C301007244B8
:1059E00005618280011122CE0010AA872E87A307AD
:1059F000F4FEBA872307F4FE8347F4FE8DC3B7078E
:105A0000055083C7270093F6F70FB70705500347E4
:105A1000E4FE558F1377F70F2381E70015A8B7072A
:105A2000055083C7270093F7F70F13978701618706
:105A30008307E4FE93C7F7FFE207E187F98F139727
:105A400087016187B70705501377F70F2381E700B8
:105A50000100724405618280011122CE0010AA87E4
:105A60002324B4FEA307F4FEB707055083C707003D
:105A700013F7F70FB70705501377F7FC1377F70FF6
:105A80002380E7008347F4FE8DC3B707055083C723
:105A9000070093F6F70FB70705500347F4FE558F3D
:105AA0001377F70F2380E70039A8B707055083C79E
:105AB000070013F7F70FB70705501377F7FC1377B5
:105AC000F70F2380E700832784FE85C3B7070550BF
:105AD00083C7070013F7F70FB707055013670704CD
